:100000000C9434000C9451000C9451000C94A403F3
:100010000C9451000C9451000C9451000C9451001C
:100020000C9451000C9451000C9451000C9451000C
:100030000C9451000C9451000C9451000C945100FC
:100040000C9451000C9451000C9451000C945100EC
:100050000C9451000C9451000C9451000C945100DC
:100060000C9451000C94510011241FBECFEFD8E026
:10007000DEBFCDBF11E0A0E0B1E0EEE3FEE002C0E4
:1000800005900D92AE31B107D9F721E0AEE1B1E0B4
:1000900001C01D92AF32B207E1F70E94AE030C948B
:1000A0001D070C9400008CE08093B8000895109216
:1000B000BC0094EA9093BC0021E137E29091BC002F
:1000C00097FD03C021503109C9F79091B900987F7D
:1000D000983011F081E008958093BB0084E880930C
:1000E000BC008091BC0087FFFCCF8091B900887F65
:1000F000883111F0803471F780E008958093BB005F
:1001000084E88093BC008091BC0087FFFCCF909175
:10011000B900987F81E0983209F480E0089584EC7A
:100120008093BC008091BC0087FFFCCF8091BB0016
:10013000089584E88093BC008091BC0087FFFCCFC9
:100140008091BB000895DF92EF92FF920F931F936F
:10015000CF93DF93C62FD42E052F79010E9457002D
:10016000182F882311F011E013C08C2F0E947E00FD
:10017000CD2DD02FEC0EFD1ECE15DF0531F089916F
:100180000E947E008823C1F3EECF84E98093BC00F7
:10019000812FDF91CF911F910F91FF90EF90DF9012
:1001A0000895AF92BF92CF92DF92FF920F931F9369
:1001B000CF93DF93C82FD62F6A0189010E94570081
:1001C000882319F0FF24F39421C08D2F0E947E0014
:1001D0008C2F81600E945700F82E8111F3CF5601B9
:1001E000E8012197C5018C199D098C179D0730F4F2
:1001F0000E948F00F50181935F01F4CFCC0DDD1DCE
:100200000E949900888384E98093BC008F2DDF9140
:10021000CF911F910F91FF90DF90CF90BF90AF9043
:10022000089580911E0180931F0183B18170809396
:100230001E01089588B1817F88B92E9808951BB852
:100240000C941A01862798E037E0282F220F87FFA9
:1002500003C0822F832701C0822F9150B1F70895E8
:1002600083EC99E00197F1F700C000000E941101B2
:100270008111FCCF0895E4E6F0E080818F778083E0
:100280001092BC00459A3D9844983C9A8FE097E2C2
:100290000197F1F700C00000449A3C9880818F7765
:1002A00080830895299A89EF90E00197F1F700C0C3
:1002B000000080917A00806480937A0080917A00B7
:1002C00086FDFCCF8091780029982091790090E0FC
:1002D000922B0895CF93DF9385B185B9EEE7F0E0D7
:1002E000808181608083E4E6F0E080818E7F80837E
:1002F00080E480937C00CAE7D0E083E888830E9492
:10030000520189EF90E00197F1F700C000000E94D0
:100310005201188225B125B9DF91CF910895CF926E
:10032000DF92EF92FF920F931F93CF93DF9300D052
:100330001F92CDB7DEB7D82E7B0123E030E0AE01AF
:100340004F5F5F4F682F80E00E94D100C82E098167
:100350001A81812F90E0982F8827800F911DF70137
:100360009183808360E080E00E9422016D2D0E94D5
:10037000220161E00E942201602F0E942201612F70
:100380000E942201C11007C091E02B81281301C0F7
:1003900090E0892F01C081E00F900F900F90DF91C6
:1003A000CF911F910F91FF90EF90DF90CF90089524
:1003B000CF92DF92EF92FF920F931F93CF93DF9331
:1003C0006817790744F08417950784F480ED8093CB
:1003D00028018DED04C08BE58093280189E080938E
:1003E000270110922601109225013DC0392F331F9D
:1003F0003327331F97FF03C0919581959109FC0125
:1004000085E2C82E81E0D82EC0E0D0E09AE0E92E47
:10041000F12C002E000C110BCF01B7010E94AE068B
:10042000DC01AC5EBE4F8C91C21744F0309731F4C2
:10043000311102C080E002C082E030E0A8010C2E41
:1004400002C0559547950A94E2F740FD8062D601B7
:100450008D936D01CF01B7010E94AE06FB0121967D
:10046000C430D105C9F6DF91CF911F910F91FF9054
:10047000EF90DF90CF900895DF92EF92FF920F936D
:100480001F93CF93DF938C011695079516950795CB
:10049000C0E0D0E093E0D92EEE24E394F12CC01715
:1004A000D10709F442C01BB80E941A0180912901AA
:1004B000815087FD03C08093290102C0D092290199
:1004C00090912901992359F028B1A70102C0440F46
:1004D000551F9A95E2F7CA01822B88B901C02E9A5E
:1004E000E09129010E2E000CFF0BEB5DFE4F808189
:1004F0008BB987EE93E00197F1F700C000000E94EE
:10050000110180911E01882371F081E090E020911B
:100510001F01222311F080E090E0892B21F00E943E
:100520001F0181E005C02196BACF0E941F0180E023
:10053000DF91CF911F910F91FF90EF90DF90089581
:100540000F93CF93DF93262FEA01662331F001E06A
:1005500001C0000F6A95EAF702C000E021E049E11E
:100560005CEF6FE077E20E94D801CE01DF91CF917E
:100570000F910C943C02E82FF0E0EC5EFE4F90816E
:10058000E5E2F1E086ED838382E4828381839083D8
:1005900080ED97E00C943C02C82F0E94BB020E94A1
:1005A0001F012FE78AE196E0215080409040E1F75B
:1005B00000C000008C2F0E94BB020E941F012FE789
:1005C0008AE196E0215080409040E1F700C00000B1
:1005D0008C2F0E94BB020E941F012FEF88E09DE339
:1005E000215080409040E1F7F1CFCF93DF931F92ED
:1005F000CDB7DEB760E080E00E9422016FEF0E947D
:100600002201898321E030E0AE014F5F5F4F6FEF41
:1006100080E00E94A300882319F080E00E94BB02C2
:1006200089EF90E00197F1F700C000001092BC0044
:1006300080E188B98EE287B90F90DF91CF9108955C
:100640008AED809328018FE58093270182ED8093C6
:1006500026011092250188EE93E00E943C02811150
:1006600013C080ED809328018DED809327011092B7
:1006700026011092250188EE93E00E943C0291E051
:10068000811103C090E001C091E0892F08950F937C
:100690001F93CF93DF9300D01F92CDB7DEB78C01AD
:1006A00060E080E00E94220164E20E942201602F4B
:1006B0000E942201612F0E94220109831A838B83E9
:1006C00023E030E0AE014F5F5F4F64E280E00E94C4
:1006D000A3000F900F900F90DF91CF911F910F917A
:1006E00008950F93CF93DF93EB01E5E2F1E083836D
:1006F000128286ED818382E8808380ED97E00E94FC
:100700003C029E01A0EDB7E00E9403072FEF3FEFF0
:1007100040E050E00E94C206DA01C9010196A11D25
:10072000B11DB695A7959795879508E023E040E021
:1007300050E068EE73E00E94D80180ED97E0DF9111
:10074000CF910F910C943C021F920F920FB60F9213
:1007500011240F900FBE0F901F901895CF93DF9329
:10076000CDB7DEB76E970FB6F894DEBF0FBECDBF24
:100770001092220111E098EE892E93E0992EA12C7F
:10078000B12C00912201023009F4E4C150F400239D
:10079000A1F00130C1F70E941F0110927A000BBB3B
:1007A000C3C1043009F4D5C208F4A3C2053059F717
:1007B00080912E010E94BB02CEC22CE325B982ECAF
:1007C00084B91BB88FEF8AB918B88EE087B9109238
:1007D000290110921F0110921E010E941101082F81
:1007E00081110E943001F894A89584B7877F84BF57
:1007F00080916000886180936000109260000E9488
:10080000530083B7817F846083BF419A80E28BB9B4
:100810009FE3ADE0B3E09150A040B040E1F700C0ED
:1008200000000E946A019C01BC0176956795CB018E
:10083000A0E0B0E0BC01CD01705A8C4E9F4F40E06B
:1008400050E00E94C20629013A013E8F2D8F0E947E
:100850001F010E943B01ED8DFE8DEC38FA4038F40B
:100860000E94F5020E9420030E941101FBCF002389
:1008700009F44DC18FE996E8A1E081509040A04075
:10088000E1F700C00000BE01655E7F4F86E00E9478
:100890008F0189ED80932801B2ECB0932701B093CA
:1008A000260102E80093250188EE93E00E943C02B5
:1008B00048E853E163E0C2010E94A0020E943001B7
:1008C00082ED809328018FE5809327010093260114
:1008D0001092250188EE93E00E943C02CB8CDC8CC8
:1008E000CC0CDD1CE12CF12CE3EBCE1AEAE6DE0A9F
:1008F000E108F108D301C201AA27BB2728EB3BE09E
:1009000040E050E0281B390B4A0B5B0BACE3B0E036
:100910000E9412076C507E4F8F4F9F4FA50194018C
:100920000E94E406DA01C9018C0D9D1DAE1DBF1D9C
:1009300048E853E162E00E94A0020E9430018DED80
:100940008093280186E5809327018EE98093260114
:100950000093250188EE93E00E943C0248E853E1B1
:1009600062E088EC90E00E94A0020E943001BE018B
:10097000675E7F4F84E20E948F01882311F081E03F
:1009800087C0698D7A8D8DED0E9471030E943001C0
:10099000FFE32DE083E0F15020408040E1F700C00C
:1009A000000084ED809328018BE5809327018CEF74
:1009B0008093260187E48093250188E893E10E94D3
:1009C0003C02882309F4A3C084E1E0E0F1E0DE0109
:1009D000119601900D928A95E1F7D12C9FE9A6E836
:1009E000B1E09150A040B040E1F700C00000FE012E
:1009F0003196ED0DF11DED0DF11DE080F1804CED16
:100A000055E063E0C7010E94A002811108C0E8EE32
:100A1000EE16E3E0FE0609F475C0D394DFCFE114CF
:100A2000F10409F46FC0BE01695E7F4F84E20E9449
:100A30008F018111A4CFD7012EEF3FEF41E050E0AD
:100A40000E941207A50194010E94C20669017A0161
:100A5000FFEFCF1ADF0AEF0AFF0AF694E794D79464
:100A6000C79416016F89788D6C157D0509F44CC00B
:100A700080E090E00E944703882361F06F89788DC1
:100A80008DED0E947103B1018AE40E94710382E03E
:100A90000E94CC0283EC99E00197F1F700C00000BE
:100AA000C6010E944703A3ECB9E01197F1F700C01B
:100AB00000008111E3CF0E94F5020E943B01BE01BC
:100AC0006B5E7F4F84E20E948F01882311F083E0E8
:100AD000DFCF8D899E898C159D0559F0B6018AE47A
:100AE0000E9471036D897E898AE40E94710384E00B
:100AF000CFCF6F89788D8DED0E9471036D897E89CE
:100B00008AE403C0698D7A8D80E00E9471030E949F
:100B1000F502ED8DFE8DEC37FB4008F01CC15092C4
:100B200024014092230111C10E941101811110C0C2
:100B30008FEE8093640010936B001093680078949C
:100B400083B7816083BF889583B78E7F83BFECCFE7
:100B5000F894E5C0419A80E28BB9A7E8B3E1119718
:100B6000F1F700C000000E946A017C010E941F0191
:100B7000BCEDEB16B1E0FB0668F0B7017695679522
:100B8000CB01A0E0B0E0BC01CD01705A8C4E9F4F6C
:100B9000970115C00E943B010E946A016C018C3DC7
:100BA000E1E09E0778F0BC0176956795CB01A0E067
:100BB000B0E0BC01CD01705A8C4E9F4F960140E0D1
:100BC00050E038C0FFE42AE382E0F150204080404A
:100BD000E1F700C00000BE016F5F7F4F87E00E9419
:100BE0008F01811103C08A8187FF0FC09FE3ADE0B1
:100BF000B3E09150A040B040E1F700C000000E9477
:100C0000F50210932E0185E0A1C00E946A017C01CB
:100C1000F694E7942C01612C712C8C3D914088F066
:100C2000C701A0E0B0E0BC01CD01705A8C4E9F4FCF
:100C3000A30192010E94C206309324012093230154
:100C400084C00E94F502C701A0E0B0E0BC01CD0164
:100C5000705A8C4E9F4FA30192010E94C206290137
:100C60003A01E980FA80EE0CFF1CB6017695679593
:100C7000CB01A0E0B0E0BC01CD01705A8C4E9F4F7B
:100C8000960140E050E00E94C2062F5F3F4F240DC6
:100C9000351D3695279588EB9BE0A0E0B0E0821BE0
:100CA000930BA109B1099C01AD01ACE3B0E00E9436
:100CB00012076C507E4F8F4F9F4FA50194010E94E9
:100CC000E406DA01C9018E0D9F1DA11DB11D8B5EC9
:100CD0009946A109B10990932B0180932A011092A2
:100CE0002D0110922C01509221014092200183E0AD
:100CF0002DC0E0902001F090210104E023E049E1C3
:100D00005CEF6FE17EE480912A0190912B010E94BB
:100D1000D80188E893E10E943C02882321F092E008
:100D2000909322012ECD80911E01882329F084E624
:100D300090E00E943C02F7CFADE8EA16AAE0FA067E
:100D400050F4F0922401E092230184E08093220188
:100D500018CD0E9420031093220113CDAA1BBB1BA8
:100D600051E107C0AA1FBB1FA617B70710F0A61BAB
:100D7000B70B881F991F5A95A9F780959095BC01CC
:100D8000CD010895A1E21A2EAA1BBB1BFD010DC0C7
:100D9000AA1FBB1FEE1FFF1FA217B307E407F5072B
:100DA00020F0A21BB30BE40BF50B661F771F881F07
:100DB000991F1A9469F760957095809590959B019D
:100DC000AC01BD01CF010895052E97FB1EF40094E0
:100DD0000E94FB0657FD07D00E94C20607FC03D005
:100DE0004EF40C94FB0650954095309521953F4F5D
:100DF0004F4F5F4F089590958095709561957F4F07
:100E00008F4F9F4F0895A29FB001B39FC001A39F32
:100E1000700D811D1124911DB29F700D811D112433
:100E2000911D08950E940307A59F900DB49F900DFA
:0E0E3000A49F800D911D11240895F894FFCF0A
:100E3E004D01F40120038403B603C003CA03D40397
:0E0E4E00DE03E803DD09C78F1B9EDE0DDF9F6C
:00000001FF
